{
  "contractName": "CrowdFunding",
  "abi": [
    {
      "inputs": [],
      "stateMutability": "nonpayable",
      "type": "constructor"
    },
    {
      "inputs": [
        {
          "internalType": "uint256",
          "name": "",
          "type": "uint256"
        },
        {
          "internalType": "address",
          "name": "",
          "type": "address"
        }
      ],
      "name": "isPaticipated",
      "outputs": [
        {
          "internalType": "bool",
          "name": "",
          "type": "bool"
        }
      ],
      "stateMutability": "view",
      "type": "function"
    },
    {
      "inputs": [],
      "name": "numCampaigns",
      "outputs": [
        {
          "internalType": "uint256",
          "name": "",
          "type": "uint256"
        }
      ],
      "stateMutability": "view",
      "type": "function"
    },
    {
      "inputs": [
        {
          "internalType": "address payable",
          "name": "receiver",
          "type": "address"
        },
        {
          "internalType": "uint256",
          "name": "goal",
          "type": "uint256"
        }
      ],
      "name": "newCampaign",
      "outputs": [
        {
          "internalType": "uint256",
          "name": "CampaignID",
          "type": "uint256"
        }
      ],
      "stateMutability": "nonpayable",
      "type": "function"
    },
    {
      "inputs": [
        {
          "internalType": "uint256",
          "name": "CampaignID",
          "type": "uint256"
        }
      ],
      "name": "bid",
      "outputs": [],
      "stateMutability": "payable",
      "type": "function"
    },
    {
      "inputs": [
        {
          "internalType": "uint256",
          "name": "CampaignID",
          "type": "uint256"
        }
      ],
      "name": "withdraw",
      "outputs": [
        {
          "internalType": "bool",
          "name": "reached",
          "type": "bool"
        }
      ],
      "stateMutability": "nonpayable",
      "type": "function"
    }
  ],
  "bytecode": "0x60a060405234801561001057600080fd5b503360805260805161040a6100306000396000610289015261040a6000f3fe60806040526004361061004a5760003560e01c80632c0f7b6f1461004f5780632e1a7d4d14610078578063454a2ab3146100a857806372174d57146100bd578063f7572cf3146100f8575b600080fd5b34801561005b57600080fd5b5061006560005481565b6040519081526020015b60405180910390f35b34801561008457600080fd5b506100986100933660046102ff565b610118565b604051901515815260200161006f565b6100bb6100b63660046102ff565b610190565b005b3480156100c957600080fd5b506100986100d8366004610330565b600360209081526000928352604080842090915290825290205460ff1681565b34801561010457600080fd5b50610065610113366004610360565b61027c565b600081815260016020526040812060028101546003820154101561013f5750600092915050565b600381018054600091829055825460405191926001600160a01b039091169183156108fc0291849190818181858888f19350505050158015610185573d6000803e3d6000fd5b506001949350505050565b6000818152600360209081526040808320338452909152902054819060ff16156101b957600080fd5b6000828152600160205260408120600381018054919234926101dc9084906103a2565b9091555050600181810180546000906101f69084906103a2565b90915550505060008281526002602081815260408084208151808301835233808252348286019081528354600180820186559489528689209351970290920180546001600160a01b0319166001600160a01b03909716969096178655905194820194909455958452600382528084209284529190529020805460ff191690921790915550565b6000336001600160a01b037f000000000000000000000000000000000000000000000000000000000000000016146102b357600080fd5b6000805490806102c2836103bb565b90915550600081815260016020526040902080546001600160a01b0319166001600160a01b03959095169490941784556002909301919091555090565b60006020828403121561031157600080fd5b5035919050565b6001600160a01b038116811461032d57600080fd5b50565b6000806040838503121561034357600080fd5b82359150602083013561035581610318565b809150509250929050565b6000806040838503121561037357600080fd5b823561037e81610318565b946020939093013593505050565b634e487b7160e01b600052601160045260246000fd5b808201808211156103b5576103b561038c565b92915050565b6000600182016103cd576103cd61038c565b506001019056fea26469706673582212209fa15a90e8c875ba0a1bbc191f9a2a895c96e6ff0c93ca50010832891ee8970864736f6c63430008130033",
  "immutableReferences": {
    "715": [
      {
        "length": 32,
        "start": 649
      }
    ]
  },
  "source": "// SPDX-License-Identifier: GPL-3.0\r\n\r\n// \r\n// \r\n// \r\npragma solidity >=0.8.2 <0.9.0;\r\n\r\n\r\ncontract CrowdFunding {\r\n    address immutable owner; // \r\n\r\n    struct Campaign {\r\n        address payable receiver;\r\n        uint numFunders;\r\n        uint fundingGoal;\r\n        uint totalRaisedAmount;\r\n    }\r\n\r\n    struct Funder {\r\n        address addr;\r\n        uint256 amount;\r\n    }\r\n\r\n    uint public numCampaigns;\r\n    mapping(uint => Campaign) campaigns;\r\n    mapping(uint => Funder[]) funders;\r\n    mapping(uint => mapping(address => bool)) public isPaticipated;\r\n\r\n    constructor() {\r\n        owner = msg.sender;\r\n    }\r\n\r\n    modifier judgePaticipate(uint CampaignID) {\r\n        require(isPaticipated[CampaignID][msg.sender] == false);\r\n        _; // \r\n    }\r\n\r\n    modifier isOwner() {\r\n        require(msg.sender == owner);\r\n        _;        \r\n    }\r\n\r\n    function newCampaign(address payable receiver, uint goal) external isOwner() returns (uint CampaignID) {\r\n        CampaignID = numCampaigns++;\r\n        Campaign storage c = campaigns[CampaignID];\r\n        c.receiver = receiver;\r\n        c.fundingGoal = goal;\r\n    }\r\n\r\n    // payable\r\n    function bid(uint CampaignID) external payable judgePaticipate(CampaignID) { // modifier\r\n        Campaign storage c = campaigns[CampaignID];\r\n        c.totalRaisedAmount += msg.value;\r\n        c.numFunders += 1;\r\n\r\n        funders[CampaignID].push(Funder({\r\n            addr: msg.sender,\r\n            amount: msg.value\r\n        }));\r\n        isPaticipated[CampaignID][msg.sender] = true;\r\n    }\r\n\r\n    function withdraw(uint CampaignID) external returns (bool reached) {\r\n        Campaign storage c = campaigns[CampaignID];\r\n\r\n        if(c.totalRaisedAmount < c.fundingGoal)\r\n            return false;\r\n        \r\n        uint amount = c.totalRaisedAmount;\r\n        c.totalRaisedAmount = 0;\r\n        c.receiver.transfer(amount); // receiverpayabletransfer\r\n\r\n        return true;\r\n    }\r\n}",
  "sourcePath": "D:\\Workspace\\Product\\10.DAO_Trial\\3.DAPP_Prj\\tintinland_class\\class-3\\contracts\\CrowdFunding.sol",
  "compiler": {
    "name": "solc",
    "version": "0.8.19+commit.7dd6d404.Emscripten.clang"
  },
  "schemaVersion": "3.4.13",
  "updatedAt": "2023-04-10T03:28:16.974Z",
  "devdoc": {
    "kind": "dev",
    "methods": {},
    "version": 1
  },
  "userdoc": {
    "kind": "user",
    "methods": {},
    "version": 1
  }
}